:020000040800F2
:100000000080012055630008313B0008333B0008A5
:10001000353B0008373B0008393B00080000000072
:10002000000000000000000000000000F14C00088B
:100030003B3B000800000000914D0008F54D000812
:10004000A5630008A5630008A5630008A563000870
:10005000A5630008A5630008A5630008A563000860
:10006000A5630008A5630008A5630008A563000850
:10007000A5630008A5630008A5630008A563000840
:10008000A5630008A5630008A56300080000000040
:10009000000000000000000000000000A563000850
:1000A000A5630008A5630008A5630008A563000810
:1000B000A5630008A5630008A5630008A563000800
:1000C000A5630008A5630008A5630008A5630008F0
:1000D000A5630008A5630008A563000800000000F0
:1000E000A5630008A5630008A563000800000000E0
:1000F000000000000000000000000000A5630008F0
:1001000000000000A56300083D3B0008A56300084F
:1001100000000000000000000000000000000000DF
:10012000A5630008A5630008A5630008A56300088F
:10013000A5630008000000000000000000000000AF
:10014000000000000000000000000000A56300089F
:10015000A5630008A5630008A5630008A56300085F
:10016000A5630008A563000800000000000000006F
:10017000000000000000000000000000000000007F
:1001800000000000A563000800000000000000005F
:04019000A56300085B
:1001A00010B5054C237833B9044B13B10448AFF3B1
:1001B00000800123237010BDE40100200000000036
:1001C000A863000808B5034B1BB103490348AFF30C
:1001D000008008BD00000000E8010020A8630008BE
:1001E000034613F8012B002AFBD1181A0138704777
:1001F00001F0FF01102A2BDB10F0070F08D010F8D8
:10020000013B013A8B422DD010F0070F42B3F6D1DB
:10021000F0B441EA012141EA014122F007047FF0F4
:1002200000070023F0E80256083C85EA010586EA4B
:10023000010685FA47F5A3FA87F586FA47F6A5FA87
:1002400087F68EB9EED1F0BC01F0FF0102F0070293
:1002500032B110F8013B013A83EA010313B1F8D13E
:100260000020704701387047002D06BF354603381F
:10027000073815F0010F07D1013015F4807F02BF58
:10028000013015F4C03F0130F0BC0138704700BFA9
:1002900081F0004102E000BF83F0004330B54FEA37
:1002A00041044FEA430594EA050F08BF90EA020FA4
:1002B0001FBF54EA000C55EA020C7FEA645C7FEA37
:1002C000655C00F0E2804FEA5454D4EB5555B8BF5A
:1002D0006D420CDD2C4480EA020281EA030382EACB
:1002E000000083EA010180EA020281EA0303362D5D
:1002F00088BF30BD11F0004F4FEA01314FF4801C30
:100300004CEA113102D0404261EB410113F0004F41
:100310004FEA03334CEA133302D0524263EB4303F8
:1003200094EA050F00F0A780A4F10104D5F1200E96
:100330000DDB02FA0EFC22FA05F2801841F10001F1
:1003400003FA0EF2801843FA05F359410EE0A5F1C5
:1003500020050EF1200E012A03FA0EFC28BF4CF0F6
:10036000020C43FA05F3C01851EBE37101F00045AC
:1003700007D54FF0000EDCF1000C7EEB00006EEBB9
:100380000101B1F5801F1BD3B1F5001F0CD3490843
:100390005FEA30004FEA3C0C04F101044FEA44529A
:1003A00012F5800F80F09A80BCF1004F08BF5FEA21
:1003B000500C50F1000041EB045141EA050130BD01
:1003C0005FEA4C0C404141EB0101013C28BFB1F513
:1003D000801FE9D291F0000F04BF01460020B1FA5E
:1003E00081F308BF2033A3F10B03B3F120020CDA31
:1003F0000C3208DD02F1140CC2F10C0201FA0CF00F
:1004000021FA02F10CE002F11402D8BFC2F1200C73
:1004100001FA02F120FA0CFCDCBF41EA0C01904029
:10042000E41AA2BF01EB0451294330BD6FEA040472
:100430001F3C1CDA0C340EDC04F11404C4F120025D
:1004400020FA04F001FA02F340EA030021FA04F36F
:1004500045EA030130BDC4F10C04C4F1200220FAC6
:1004600002F001FA04F340EA0300294630BD21FA04
:1004700004F0294630BD94F0000F83F4801306BFCA
:1004800081F480110134013D4EE77FEA645C18BFBE
:100490007FEA655C29D094EA050F08BF90EA020F55
:1004A00005D054EA000C04BF1946104630BD91EA4D
:1004B000030F1EBF0021002030BD5FEA545C05D150
:1004C0004000494128BF41F0004130BD14F580048F
:1004D0003CBF01F5801130BD01F0004545F0FE4103
:1004E00041F470014FF0000030BD7FEA645C1ABF38
:1004F000194610467FEA655C1CBF0B46024650EA6F
:10050000013406BF52EA033591EA030F41F400219A
:1005100030BD00BF90F0000F04BF0021704730B520
:100520004FF4806404F132044FF000054FF00001F5
:1005300050E700BF90F0000F04BF0021704730B5B6
:100540004FF4806404F1320410F0004548BF40428B
:100550004FF000013EE700BF42004FEAE2014FEAE0
:1005600031014FEA02701FBF12F07F4393F07F4FBB
:1005700081F06051704732F07F4208BF704793F0BE
:100580007F4F04BF41F40021704730B54FF46074D1
:1005900001F0004521F000411CE700BF50EA0102D4
:1005A00008BF704730B54FF000050AE050EA01027D
:1005B00008BF704730B511F0004502D5404261EBED
:1005C00041014FF4806404F132045FEA915C3FF42E
:1005D000D8AE4FF003025FEADC0C18BF03325FEACB
:1005E000DC0C18BF033202EBDC02C2F1200300FA7C
:1005F00003FC20FA02F001FA03FE40EA0E0021FAA1
:1006000002F11444BDE600BF70B54FF0FF0C4CF48E
:10061000E06C1CEA11541DBF1CEA135594EA0C0F40
:1006200095EA0C0F00F0DEF82C4481EA030621EA7B
:100630004C5123EA4C5350EA013518BF52EA0335B6
:1006400041F4801143F4801338D0A0FB02CE4FF068
:100650000005E1FB02E506F00042E0FB03E54FF098
:100660000006E1FB03569CF0000F18BF4EF0010E90
:10067000A4F1FF04B6F5007F64F5407404D25FEA8C
:100680004E0E6D4146EB060642EAC62141EA55513F
:100690004FEAC52040EA5E504FEACE2EB4F1FD0C81
:1006A00088BFBCF5E06F1ED8BEF1004F08BF5FEAFF
:1006B000500E50F1000041EB045170BD06F00046B1
:1006C00046EA010140EA020081EA0301B4EB5C045E
:1006D000C2BFD4EB0C0541EA045170BD41F4801156
:1006E0004FF0000E013C00F3AB8014F1360FDEBF7B
:1006F000002001F0004170BDC4F10004203C35DA57
:100700000C341BDC04F11404C4F1200500FA05F3D9
:1007100020FA04F001FA05F240EA020001F000427A
:1007200021F0004110EBD37021FA04F642EB0601F0
:100730005EEA430E08BF20EAD37070BDC4F10C041A
:10074000C4F1200500FA04F320FA05F001FA04F2DE
:1007500040EA020001F0004110EBD37041F10001CA
:100760005EEA430E08BF20EAD37070BDC4F12005D5
:1007700000FA05F24EEA020E20FA04F301FA05F23D
:1007800043EA020321FA04F001F0004121FA04F2E5
:1007900020EA020000EBD3705EEA430E08BF20EAB5
:1007A000D37070BD94F0000F0FD101F000464000EF
:1007B00041EB010111F4801F08BF013CF7D041EA71
:1007C000060195F0000F18BF704703F00046520075
:1007D00043EB030313F4801F08BF013DF7D043EA46
:1007E0000603704794EA0C0F0CEA135518BF95EAFC
:1007F0000C0F0CD050EA410618BF52EA4306D1D183
:1008000081EA030101F000414FF0000070BD50EAA1
:10081000410606BF1046194652EA430619D094EA2B
:100820000C0F02D150EA013613D195EA0C0F05D115
:1008300052EA03361CBF104619460AD181EA030169
:1008400001F0004141F0FE4141F470014FF0000021
:1008500070BD41F0FE4141F4780170BD70B54FF0BC
:10086000FF0C4CF4E06C1CEA11541DBF1CEA13553C
:1008700094EA0C0F95EA0C0F00F0A7F8A4EB05041E
:1008800081EA030E52EA03354FEA013100F0888015
:100890004FEA03334FF0805545EA131343EA1263DE
:1008A0004FEA022245EA111545EA10654FEA002693
:1008B0000EF000419D4208BF964244F1FD0404F54C
:1008C000407402D25B084FEA3202B61A65EB0305A8
:1008D0005B084FEA32024FF480104FF4002CB6EB65
:1008E000020E75EB030E22BFB61A754640EA0C00E5
:1008F0005B084FEA3202B6EB020E75EB030E22BF25
:10090000B61A754640EA5C005B084FEA3202B6EB65
:10091000020E75EB030E22BFB61A754640EA9C0024
:100920005B084FEA3202B6EB020E75EB030E22BFF4
:10093000B61A754640EADC0055EA060E18D04FEAB2
:10094000051545EA16754FEA06164FEAC30343EA52
:1009500052734FEAC2025FEA1C1CC0D111F4801F1F
:100960000BD141EA00014FF000004FF0004CB6E718
:1009700011F4801F04BF01430020B4F1FD0C88BFB7
:10098000BCF5E06F3FF6AFAEB5EB030C04BFB6EBC2
:10099000020C5FEA500C50F1000041EB045170BDB5
:1009A0000EF0004E4EEA113114EB5C04C2BFD4EBE2
:1009B0000C0541EA045170BD41F480114FF0000E66
:1009C000013C90E645EA060E8DE60CEA135594EAE2
:1009D0000C0F08BF95EA0C0F3FF43BAF94EA0C0FE5
:1009E0000AD150EA01347FF434AF95EA0C0F7FF45A
:1009F00025AF104619462CE795EA0C0F06D152EAAE
:100A000003353FF4FDAE1046194622E750EA410691
:100A100018BF52EA43067FF4C5AE50EA41047FF4A2
:100A20000DAF52EA43057FF4EBAE12E74FF0FF3C07
:100A300006E000BF4FF0010C02E000BF4FF0010CD8
:100A40004DF804CD4FEA410C7FEA6C5C4FEA430C51
:100A500018BF7FEA6C5C1BD001B050EA410C0CBFA0
:100A600052EA430C91EA030F02BF90EA020F002002
:100A7000704710F1000F91EA030F58BF994208BF69
:100A800090422CBFD8176FEAE37040F00100704726
:100A90004FEA410C7FEA6C5C02D150EA013C07D17D
:100AA0004FEA430C7FEA6C5CD6D152EA033CD3D0C8
:100AB0005DF8040B704700BF8446104662468C46C2
:100AC0001946634600E000BF01B5FFF7B7FF0028F5
:100AD00048BF10F1000F01BD4DF808EDFFF7F4FF1E
:100AE0000CBF012000205DF808FB00BF4DF808EDA9
:100AF000FFF7EAFF34BF012000205DF808FB00BFCC
:100B00004DF808EDFFF7E0FF94BF012000205DF8ED
:100B100008FB00BF4DF808EDFFF7CEFF94BF0120A2
:100B200000205DF808FB00BF4DF808EDFFF7C4FF9B
:100B300034BF012000205DF808FB00BF4FEA410CE4
:100B40007FEA6C5C02D150EA013C0AD14FEA430CC7
:100B50007FEA6C5C02D152EA033C02D14FF0000004
:100B600070474FF0010070474FEA410212F5001242
:100B700015D211D56FF47873B3EB625212D94FEAE4
:100B8000C12343F0004343EA505311F0004F23FACE
:100B900002F018BF404270474FF00000704750EA23
:100BA000013005D111F0004008BF6FF000407047E0
:100BB0004FF00000704700BF53B94AB9002908BF81
:100BC00000281CBF4FF0FF314FF0FF3000F074B928
:100BD000ADF1080C6DE904CE00F006F8DDF804E094
:100BE000DDE9022304B070472DE9F047089D044673
:100BF0008E46002B4DD18A42944669D9B2FA82F2D0
:100C000052B101FA02F3C2F1200120FA01F10CFA0B
:100C100002FC41EA030E94404FEA1C48210CBEFB43
:100C2000F8F61FFA8CF708FB16E341EA034306FBCC
:100C300007F199420AD91CEB030306F1FF3080F05B
:100C40001F81994240F21C81023E63445B1AA4B2A8
:100C5000B3FBF8F008FB103344EA034400FB07F74A
:100C6000A7420AD91CEB040400F1FF3380F00A818B
:100C7000A74240F207816444023840EA0640E41B80
:100C800000261DB1D4400023C5E900433146BDE82C
:100C9000F0878B4209D9002D00F0EF800026C5E9CE
:100CA000000130463146BDE8F087B3FA83F6002EE6
:100CB0004AD18B4202D3824200F2F980841A61EB5E
:100CC000030301209E46002DE0D0C5E9004EDDE77C
:100CD00002B9FFDEB2FA82F2002A40F09280A1EB64
:100CE0000C014FEA1C471FFA8CFE0126200CB1FBB9
:100CF000F7F307FB131140EA01410EFB03F08842B2
:100D000008D91CEB010103F1FF3802D2884200F23E
:100D1000CB804346091AA4B2B1FBF7F007FB1011D0
:100D200044EA01440EFB00FEA64508D91CEB04046E
:100D300000F1FF3102D2A64500F2BB800846A4EBC9
:100D40000E0440EA03409CE7C6F12007B34022FAB4
:100D500007FC4CEA030C20FA07F401FA06F31C43E3
:100D6000F9404FEA1C4900FA06F3B1FBF9F8200CF0
:100D70001FFA8CFE09FB181140EA014108FB0EF036
:100D8000884202FA06F20BD91CEB010108F1FF3A86
:100D900080F08880884240F28580A8F10208614492
:100DA000091AA4B2B1FBF9F009FB101144EA0141A0
:100DB00000FB0EFE8E4508D91CEB010100F1FF344B
:100DC0006CD28E456AD90238614440EA0840A0FBE3
:100DD0000294A1EB0E01A142C846A64656D353D0B9
:100DE0005DB1B3EB080261EB0E0101FA07F722FADD
:100DF00006F3F1401F43C5E9007100263146BDE806
:100E0000F087C2F12003D8400CFA02FC21FA03F368
:100E1000914001434FEA1C471FFA8CFEB3FBF7F0E9
:100E200007FB10360B0C43EA064300FB0EF69E420E
:100E300004FA02F408D91CEB030300F1FF382FD2A7
:100E40009E422DD9023863449B1B89B2B3FBF7F64F
:100E500007FB163341EA034106FB0EF38B4208D928
:100E60001CEB010106F1FF3816D28B4214D9023E69
:100E70006144C91A46EA004638E72E46284605E787
:100E80000646E3E61846F8E64B45A9D2B9EB020858
:100E900064EB0C0E0138A3E74646EAE7204694E7E8
:100EA0004046D1E7D0467BE7023B614432E730461B
:100EB00009E76444023842E7704700BF70B50D4D42
:100EC0000D4C641BA4100026A64209D10B4D0C4CFE
:100ED00005F06AFA641BA4100026A64205D170BD75
:100EE00055F8043B98470136EEE755F8043B984720
:100EF0000136F2E754680008546800085468000896
:100F00005868000802440346934200D1704703F832
:100F1000011BF9E72DE9FF4755EC104B002D0E465C
:100F200019462B46BBBF05F100431D4600232D2368
:100F30000B700D9BDDF830A0914623F02008BCBF5C
:100F400022461446B8F1460F05D0B8F1450F00D13E
:100F50000136022100E0032103AB019302AB0093B1
:100F600045EC104B5346324600F0CAFCB8F1470F2F
:100F7000074602D119F0010F22D0B8F1460F07EB56
:100F8000060910D13B78302B0AD1002200232046DD
:100F90002946FFF7A1FD18B9C6F10106CAF800609D
:100FA000DAF8003099440022002320462946FFF752
:100FB00093FD08B1CDF80C903022039B4B4507D32D
:100FC000039B0E9ADB1B3846136004B0BDE8F08724
:100FD000591C03911A70F0E7F7B503460029B8BF12
:100FE000494203F8022BB4BF2D222B22092942705B
:100FF0002ADD0DF10704A4460A27A6460A4691FBFE
:10100000F7F607FB16153035632A04F1FF340EF8A6
:10101000015C3146F1DC3031AEF1020504F8011C0F
:10102000441C294661450AD30DF10902A2EB0E02C8
:10103000654588BF00221344181A03B0F0BD11F8AB
:10104000012B04F8012FEDE7302330318370C1709C
:10105000031DF1E72DE9F04F2DED028B8DB00C460D
:10106000DDF8608016461F46054601F037FAD0F8D5
:1010700000A05046FFF7B4F800230A9323680593B5
:10108000D8F8003094F818B0073323F0070303F1C1
:101090000802C8F80020D3E90023C4E91223D4E9E8
:1010A000128929F000430793CDF8188008EE100A42
:1010B0009F4BDDE906014FF0FF32FFF73FFD88BB94
:1010C000DDE906019A4B4FF0FF32FFF719FD48BBEF
:1010D0000022002340464946FFF708FD10B12D23AA
:1010E00084F84330934B9448BBF1470F94BF984624
:1010F000804603232361059B23F0040222604FF006
:101100000009009733460BAA2146284600F0D8F97B
:10111000013040F090804FF0FF300DB0BDEC028BFD
:10112000BDE8F08F42464B4640464946FFF706FD74
:1011300040B14B46002BBCBF2D2384F843307F4881
:101140007F4BD1E763680BF0DF0206925A1C3FD158
:1011500006236360059B616843F480620023039368
:101160000AABCDE901B309AB49EC108B00932260C7
:101170000DF123032846FFF7CDFE069B0999472B67
:10118000804608D1C81C02DB6368994241DDABF19F
:10119000020B5FFA8BFBBBF1650F20D801395A4671
:1011A00004F150000991FFF717FF0A9A1318012A5A
:1011B0008146236102DC2268D20701D50133236115
:1011C0009DF82330002B9CD02D2384F8433098E7E2
:1011D000069A472ABED1002BBCD10123B9E7BBF147
:1011E000660F18D1002963680BDD216113B92268ED
:1011F000D00702D501330B442361A1654FF00009EC
:10120000DEE713B92268D20701D50233F4E70123E0
:10121000F2E74FF0670B0A9B994205DB23682161D7
:10122000D807EAD54B1CE7E70029D4BFC1F1020279
:1012300001221344E0E723685A0507D42369424694
:1012400031462846B84701302CD164E7BBF1650F21
:1012500040F2E080D4E9120100220023FFF73CFCB9
:10126000002834D0374A012331462846B847013098
:101270003FF451AFDDE909239A4202DB2368D80726
:1012800010D518EE103A524631462846B84701307C
:101290003FF441AF4FF0000804F11A090A9B013BEB
:1012A000434509DC23689B0700F10581E0680B9B3F
:1012B0009842B8BF184630E701234A4631462846CF
:1012C000B84701303FF427AF08F10108E6E7099B72
:1012D000002B39DC1B4A012331462846B847013030
:1012E0003FF419AFDDE90923134302D12368D9077D
:1012F000D8D518EE103A524631462846B847013044
:101300003FF409AF4FF0000904F11A0A099B5B4250
:101310004B4501DC0A9B92E70123524631462846A1
:10132000B84701303FF4F7AE09F10109EEE700BF1D
:10133000FFFFEF7FC4630008C8630008D0630008A4
:10134000CC630008D46300080A9AA36D9A42A8BF30
:101350001A46002A914637DC4FF0000B29EAE9795A
:1013600004F11A02A36D0593A3EB09035B4533DC7B
:10137000DDE909239A423BDB2368DA0738D40A9B6C
:10138000059A09999A1AA3EB01099145A8BF9146BC
:10139000B9F1000F35DC4FF0000829EAE97904F1D2
:1013A0001A0ADDE909239B1AA3EB090343457FF7DA
:1013B00079AF0123524631462846B84701303FF401
:1013C000AAAE08F10108ECE713463146424628462A
:1013D000B8470130C0D19EE6012331462846059228
:1013E000B84701303FF497AE059A0BF1010BB9E70E
:1013F00018EE103A524631462846B8470130BED161
:1014000089E6059A4B46424431462846B8470130A2
:10141000C1D180E60A9A012A01DCDB0738D5012315
:10142000424631462846B84701303FF474AE18EEC4
:10143000103A524631462846B84701303FF46BAE69
:10144000D4E9120100220023FFF746FBD8B90A9B1A
:1014500008F10102013B31462846B84701300ED160
:1014600059E60123524631462846B84701303FF439
:1014700052AE08F101080A9B013B4345F1DC4B46A3
:1014800004F15002DCE64FF0000804F11A0AF2E71A
:1014900001234246DFE701234A4631462846B84742
:1014A00001303FF438AE08F10108E3680B995B1A8C
:1014B0004345F0DCFAE64FF0000804F11909F4E7BF
:1014C0002DE9F047164699468A680B69DDF82080B9
:1014D0009342B8BF1346336091F8432007460C4649
:1014E0000AB1013333602368990642BF336802337F
:1014F0003360256815F0060506D104F1190AE36882
:1015000032689B1AAB4226DC94F84320131E2268F3
:1015100018BF012392062BD404F1430249463846F2
:10152000C04701301ED02368E568326803F0060327
:10153000042B08BFAD1AA36822690CBF25EAE57524
:1015400000259342C4BF9B1AED1800261A34B542F9
:101550001AD1002008E00123524649463846C047C8
:10156000013003D14FF0FF30BDE8F0870135C6E709
:10157000E1185A1C302081F84300224494F84510A9
:1015800082F843100233C7E7012322464946384612
:10159000C0470130E6D00136D9E700002DE9FF470A
:1015A0000F7E0C9D782F914680460C469A4601F19D
:1015B000430207D8622F0AD8002F00F0D880582F96
:1015C00000F0A38004F1420584F842703AE0A7F1EC
:1015D0006303152BF6D801A151F823F03516000846
:1015E00049160008C5150008C5150008C5150008EE
:1015F000C515000849160008C5150008C5150008DE
:10160000C5150008C515000855170008791600080B
:1016100037170008C5150008C5150008771700081A
:10162000C515000879160008C5150008C51500087D
:101630003F1700082B681A1D1B682A6004F1420539
:1016400084F842300123A3E020682968060601F1EE
:1016500004030AD50E682B60002E03DA2D23764290
:1016600084F843305E480A2319E00E682B6010F0BE
:10167000400F18BF36B2EFE72B682068191D2960AC
:10168000010601D51E6802E04606FBD51E885448B7
:101690006F2F0CBF08230A23002184F843106568CC
:1016A000A560002DA2BF216821F0040121600EB9C0
:1016B000002D4DD01546B6FBF3F103FB1167C75D56
:1016C00005F8017D3746BB420E46F4D9082B0BD1F5
:1016D0002368DE0708D5236961689942DEBF30239D
:1016E00005F8013C05F1FF35521B2261CDF800A041
:1016F0004B4603AA21464046FFF7E2FE01304CD19B
:101700004FF0FF3004B0BDE8F087354881F84570F0
:101710002968236851F8046B29601D0614D5DF077A
:1017200044BF43F0200323601EB9236823F0200345
:1017300023601023B0E7236843F02003236078235D
:10174000284884F84530E3E7590648BFB6B2E6E7D3
:101750001546BBE72B6826686169181D28603506A9
:101760001B6801D5196002E07006FBD519800023C3
:1017700023611546BAE72B681A1D2A601D68626846
:1017800000212846FEF734FD08B1401B6060636805
:101790002361002384F84330A8E723692A46494699
:1017A0004046D0470130ABD023689B0713D4E06894
:1017B000039B9842B8BF1846A4E701233246494626
:1017C0004046D04701309BD00135E36803995B1A4E
:1017D000AB42F2DCEBE7002504F11906F5E700BFA8
:1017E000D6630008E76300082DE9F74F03690C6929
:1017F000A3420746C0F28180013C01F1140800F1C8
:10180000140505EB8403019358F8243055F824207F
:1018100001339A424FEA840B08EB8409B2FBF3F6DA
:1018200031D34FF0000E4046AC46F24650F8042B40
:1018300093B206FB03E34FEA134E9BB2AAEB0303FA
:10184000120CDCF800A006FB02E213FA8AF34FEA5E
:10185000124E1FFA82FADCF80020CAEB124202EBA9
:1018600023429BB243EA024381454CF8043B4FEAD2
:10187000224ADBD255F80B302BB9019B043B9D4229
:101880001A462ED33C61384601F0C4F8002824DB08
:10189000013628464FF0000C58F8042BD0F800E031
:1018A00093B2ACEB0303120C13FA8EF3C2EB1E429D
:1018B00002EB23429BB243EA0243C14540F8043B9A
:1018C0004FEA224CE8D255F8242005EB840322B9D4
:1018D000043B9D421A460AD33C61304603B0BDE842
:1018E000F08F1268043B002ACCD1013CC7E7126894
:1018F000043B002AF0D1013CEBE70020EEE70000BA
:101900002DE9F04F2DED048B57EC106B93B0456A29
:10191000DDF88080069110EE10AA044609920C931F
:10192000BB4675B9102000F0DDFD0246606220B9AB
:10193000A74BEA21A74801F035FAC0E90155056037
:10194000C560636A196851B15A684A6001239340BF
:101950008B60204600F01CFE636A00221A603B1E6A
:10196000AABF002323F0004BC8F800309A4BBCBF3D
:101970000122C8F8002033EA0B031BD10C9A42F273
:101980000F731360CBF31303334300F09285219B55
:1019900063B9924B22E0924B01930833219A136072
:1019A000019813B0BDEC048BBDE8F08F8B4B019315
:1019B0000333F3E70022002350465946FFF78CF823
:1019C0004BEC19AB804658B10C9A01231360219B54
:1019D000002B00F06B8583481860431E0193DFE7FE
:1019E0004BEC10AB10AA11A9204601F0B9F8CBF3CB
:1019F0000A5508EE100A002D00F0848019EE903A86
:101A0000C3F3130343F07F57564647F44017A5F23C
:101A1000FF35CDF83880744B002230463946FEF74A
:101A20003BFC65A3D3E90023FEF7EEFD64A3D3E9F5
:101A30000023FEF733FC064628460F46FEF77AFDE4
:101A400061A3D3E90023FEF7DFFD02460B463046D3
:101A50003946FEF723FC06460F46FFF785F80022BD
:101A60000090002330463946FFF740F850B1009807
:101A7000FEF760FD32463B46FFF72EF810B9009B9B
:101A8000013B0093009B162B5AD8009A574B03EB4F
:101A9000C203D3E9002351EC190BFFF727F8002804
:101AA00050D0009B013B009300230B93109B5D1BC8
:101AB0006B1E059345BFC5F101030493002300236A
:101AC0004CBF05930493009B002B3DDB059B009AC4
:101AD0000A921344059300230793069B092B00F2F7
:101AE0008980052BC4BF043B0693069BA3F1020328
:101AF000CCBF00250125032B00F28780DFE803F02F
:101B00002D3A3859DDE910531D4405F23243202B9C
:101B1000C1BFC3F1400305F212400BFA03F326FAEA
:101B200000F0DABFC3F1200306FA03F01843FEF712
:101B3000F1FC01230646A1F1F877013D0E936AE717
:101B40000123B2E70B90B1E7049B009A9B1A049320
:101B50005342079300230A93BFE700230893099B8E
:101B6000002B55DC0123CDE902331A4609920CE023
:101B70000123F3E70023099A0893009B134402937F
:101B80000133012B0393B8BF0123606A0022426036
:101B9000042202F114069E4241683DD9204600F01D
:101BA000B7FC019000283BD1114B02464FF4D57190
:101BB000C0E60123DFE700BF61436F63A787D23F21
:101BC000B3C8608B288AC63FFB799F501344D33F2C
:101BD000056400081C6400080000F07F0164000830
:101BE000F8630008D56300080000F83F506500085E
:101BF0009964000801250023069308954FF0FF33F0
:101C0000CDE9023300221223B0E701230893F5E760
:101C1000099BCDE90233B8E7013141605200B8E7D2
:101C2000636A019A1A60039B0E2B00F29D80002DBF
:101C300000F09A80009B002B32DDB74A03F00F03BF
:101C400002EBC303D3E90089009BD8054FEA2317B1
:101C500016D5B24B51EC190BD3E90823FEF7FEFD64
:101C600007F00F0782468B460325AC4E57B9424614
:101C70004B4650465946FEF7F1FD82468B4628E01A
:101C80000225F2E7F90708D540464946D6E9002380
:101C9000FEF7BAFC0135804689467F100836E5E735
:101CA00000F09B80009B9D4F5E429B4B06F00F0215
:101CB00003EBC203D3E9002351EC190BFEF7A4FC9C
:101CC000361182468B4600230225002E7AD1002B46
:101CD000D3D10B9B002B00F08280914B0022504609
:101CE0005946FEF703FF002879D0039B002B76D0DE
:101CF000029B002B36DD009B504659465F1E00229A
:101D0000884BFEF781FC029E82468B4601352846B1
:101D1000FEF710FC52465B46FEF776FC824B002233
:101D2000FEF7BCFAD046D9468246A1F1507B002E80
:101D300058D17E4B002240464946FEF7ADFA524646
:101D40005B4680468946FEF7EFFE002840F095820C
:101D500052460BF1004340464946FEF7C7FE0028B5
:101D600040F089825BEC19AB119B002BC0F24881DB
:101D7000009A0E2A00F34481674B03EBC203D3E9B8
:101D80000089099B002B80F2D580039B002B00F378
:101D9000D18040F06F82654B002240464946FEF7F5
:101DA00033FC52465B46FEF7B5FE039E37460028DD
:101DB00040F04582019D312305F8013B009B013332
:101DC000009340E2F20705D5D7E90023FEF71CFC9B
:101DD000013501237610083777E7022579E7009F60
:101DE000039E94E701994C4B31440D91089903EB04
:101DF000C60353E90223002943D04D490020FEF7D2
:101E00002DFD52465B46FEF747FA019D82468B4602
:101E100049464046FEF7A8FE0646FEF78BFB024603
:101E20000B4640464946FEF737FA303605F8016B57
:101E300052465B4680468946FEF758FE002863D12D
:101E400042464B4636490020FEF726FA52465B468C
:101E5000FEF74CFE002840F0B5800D9B9D4281D0DE
:101E6000304B002250465946FEF7CEFB2D4B8246A2
:101E70008B46404649460022FEF7C6FB804689460F
:101E8000C6E750465946FEF7BFFB0D9B019D0F93D9
:101E900082468B4649464046FEF766FE0646FEF7FA
:101EA00049FB303602460B4640464946FEF7F4F9F8
:101EB00005F8016B0D9B9D42804689464FF000025C
:101EC00024D11B4B50465946FEF7E8F902460B4613
:101ED00040464946FEF728FE002873D152465B462D
:101EE00013490020FEF7D8F902460B464046494602
:101EF000FEF7FCFD00283FF435AF0F9D6B1E0F93DE
:101F000015F8013C302BF8D0009749E0054BFEF75F
:101F10007BFB80468946BDE75065000828650008C0
:101F20000000F03F0000244000001C40000014406E
:101F30000000E03F019D56465F4642464B46304614
:101F40003946FEF78BFCFEF70FFE8246FEF7F2FAEB
:101F500042464B46FEF758FB02460B463046394692
:101F60000AF13006FEF798F905F8016B019E039F10
:101F7000AE1BB74202460B4635D1FEF78FF94246FB
:101F80004B4606460F46FEF7CFFDD0B942464B46BC
:101F900030463946FEF7A0FD10B11AF0010F10D1FE
:101FA000204618EE101A00F0F3FA002300982B7068
:101FB0000C9B01301860219B002B3FF4F1AC1D609D
:101FC000EEE4009F2B461D4613F8012D392A06D159
:101FD000019A9A42F7D10199302201370A701A7892
:101FE00001321A7090E7A64B0022FEF70DFB00228B
:101FF000002306460F46FEF76FFD00289DD0CFE771
:10200000089A002A00F0D780069A012A00F3BA80C5
:102010000E9A002A00F0B28003F23343079E049D1B
:10202000049A1A440492059A01211A442046059202
:1020300000F066FB0746002D0CDD059B002B09DD3B
:10204000AB42049AA8BF2B46D21A0492059AED1A05
:10205000D31A0593079B1BB3089B002B00F0AF809E
:10206000002E13DD39463246204600F009FC18EEFA
:10207000102A01460746204600F058FB18EE101AB9
:102080008046204600F084FA08EE108A079B9A1BCF
:1020900006D018EE101A204600F0F2FB08EE100AE7
:1020A0000121204600F02CFB0A9B002B064640F342
:1020B00088801A460146204600F0E2FB069B012B71
:1020C000064640F381804FF00008336906EB830336
:1020D000186900F0C5FAC0F12000059B184410F003
:1020E0001F0000F09280C0F12003042B40F38A808F
:1020F000C0F11C00049B03440493059B0344054466
:102100000593049B002B07DD18EE101A1A46204693
:1021100000F010FC08EE100A059B002B05DD31468F
:102120001A46204600F006FC06460B9B002B6ED09C
:1021300018EE100A314600F06DFC002867DA009BAB
:10214000013B18EE101A00930A220023204600F0EB
:1021500041FA089B08EE100A002B00F0B181002321
:1021600039460A22204600F035FA029B002B07462A
:1021700000F38E80069B022B51DC89E0109BC3F19B
:1021800036034BE7039B5E1E079BB342BFBF079B13
:102190000796F21A0A9BB6BF9B189E1B0A93039BD5
:1021A000B8BF0026002BB7BFDDE90323DDE9033507
:1021B0009D1A002334E7079E049D089F3BE7079A7A
:1021C00067E7069B012B18DCBAF1000F15D1CBF3A2
:1021D000130393B92BF000431B0D1B0583B1049B24
:1021E00001330493059B013305934FF001080A9BCB
:1021F000002B7FF46AAF01206FE74FF00008F6E78D
:102200009846F4E73FF47DAF18461C3072E7039B15
:10221000002B37DC069B022B34DD039B0293029BD1
:102220006BB931460522204600F0D4F90146064636
:1022300018EE100A00F0EEFB00283FF7BBAD099B3B
:10224000019DDB4300934FF000083146204600F02B
:102250009FF9002F3FF4A4AEB8F1000F05D0B845A8
:1022600003D04146204600F093F93946204600F05D
:102270008FF995E600263746E1E70097374699E55E
:1022800000002440089B002B00F0CA80039B0293AF
:10229000002D05DD39462A46204600F04BFB074657
:1022A000B8F1000F5BD07968204600F031F905469F
:1022B00028B9874B024640F2EA21FFF73BBB3A6957
:1022C0000232920007F10C010C3000F013F90122E8
:1022D0002946204600F02EFB019B03F10109DDE9B0
:1022E0000123134405930AF00103B84604930746FB
:1022F000314618EE100AFFF777FA4146029000F1D6
:10230000300A18EE100A00F085FB3A460390314679
:10231000204600F09BFBC26809F1FF3B054602BB6B
:10232000014618EE100A00F075FB024629462046C9
:10233000079200F02DF9DDE9063243EA0201049B21
:102340000B434D460FD1BAF1390F2AD0039B002B16
:1023500002DD029B03F1310A8BF800A075E73846D5
:10236000BAE70122E2E7039B002B04DB06990B434B
:1023700004990B4322D1002AEEDD18EE101A012237
:10238000204600F0D7FA314608EE100A00F042FB72
:10239000002803DCE0D11AF0010FDDD0BAF1390FCB
:1023A000D7D139238BF800302B461D46013B15F859
:1023B000012C392A71D001321A7046E7002A07DD54
:1023C000BAF1390FEDD00AF101038BF800303CE788
:1023D000059B09F801AC994547D018EE101A002367
:1023E0000A22204600F0F6F8B84508EE100A4FF031
:1023F00000034FF00A024146204606D100F0EAF8F9
:102400008046074609F1010972E700F0E3F8394612
:10241000804600230A22204600F0DCF80746F1E758
:10242000039B0293019D18EE100A3146FFF7DCF979
:1024300000F1300A019B05F801ABEA1A029B9342B6
:1024400009DD18EE101A00230A22204600F0C2F817
:1024500008EE100AE7E7029B002BC8BF1D46019B50
:10246000D8BF01251D444FF0000818EE101A0122B4
:10247000204600F05FFA314608EE100A00F0CAFA72
:10248000002891DC02D11AF0010F8DD12B461D4698
:1024900013F8012D302AFAD0D7E6019A9A4284D156
:1024A000009B0133009331231370CEE6094BFFF7F5
:1024B00095BA219B002B7FF46EAA074BFFF78EBACB
:1024C000029B002BAEDC069B022B3FF7A8AEA9E7D0
:1024D00099640008D4630008F86300080048704756
:1024E00054010020024B0146186800F0F1BB00BF08
:1024F000000000200A44914200F1FF3300D17047F0
:1025000010B511F8014B03F8014F9142F9D110BDFC
:1025100070B5466A04460D4676B91020FFF7E2FF13
:102520000246606220B9184B1848662100F03AFC58
:10253000C0E901660660C660666AF36883B1636AD3
:10254000DB6853F82500B8B9012101FA05F6721DC0
:102550009200204600F060FB60B1C0E901560EE039
:1025600021220421204600F057FB636AF060DB68FB
:10257000002BE4D1002070BD026843F82520002321
:10258000C0E90333F7E700BF05640008AA64000848
:1025900070B5466A05460C4676B91020FFF7A2FFD3
:1025A0000246686220B9094B09488A2100F0FAFB0B
:1025B000C0E901660660C6603CB16B6A6268DB68B0
:1025C00053F82210216043F8224070BD05640008D2
:1025D000AA6400082DE9F0410D6907460C461E4625
:1025E00001F1140C0020DCF8003099B202FB01610B
:1025F0001E0C0B0C02FB063389B2013001EB0341C8
:1026000085424CF8041B4FEA1346ECDC0EB3A3687A
:10261000AB4219DC616838460131FFF779FF80462B
:1026200028B902460C4B0D48B52100F0BBFB2269CE
:10263000023204F10C0192000C30FFF75BFF2146DF
:102640003846FFF7A5FF444604EB850301355E617C
:1026500025612046BDE8F08199640008AA6400085D
:10266000030C1B04D3B90004102310F07F4F04BFE8
:102670000002083310F0704F04BF0001043310F063
:10268000404F04BF80000233002805DB10F0804F6C
:1026900003F1010308BF2023184670470023E4E735
:1026A000036813F0070201460BD0DA0723D498071A
:1026B00049BF5B089B0801200B605CBF0B600220D8
:1026C000704798B2A8B91B0C1020DAB20AB90830CA
:1026D0001B0A1A0704BF1B0904309A0704BF9B0892
:1026E0000230DA0703D45B0800F1010005D00B606B
:1026F00070471046E9E7002070472020704700002F
:1027000010B50C460121FFF703FF024628B9054B1F
:1027100005484FF4A07100F045FB012344610361BB
:1027200010BD00BF99640008AA6400082DE9F04FAD
:1027300091460A69D9F810309A42B8BF0B460C4648
:10274000BCBF4C4699462769D9F810A0A3686168B8
:1027500007EB0A06B34285B0B8BF0131FFF7D8FED8
:1027600030B90246444B454840F25D1100F01AFB77
:1027700000F1140505EB86082B460022434521D3C2
:1027800004F1140303EB870709F1140303EB8A0236
:1027900002923A1B153A22F00302043204F11501A9
:1027A0008F4238BF04220192029A03939A420CD8B6
:1027B000002E03DD58F8043D002B5AD0066105B009
:1027C000BDE8F08F43F8042BD8E7B3F800A0BAF1C6
:1027D000000F24D004F1140EA9464FF0000C5EF84F
:1027E000042BD9F800101FFA82FB89B20AFB0B11E7
:1027F0004FEA124BD9F8002061444FEA124C0AFB11
:102800000BC202EB114289B241EA0241774549F815
:10281000041B4FEA124CE2D8019A45F802C0039A11
:10282000B2F802900433B9F1000F20D0296804F106
:10283000140CAE464FF0000ABCF800B0BEF80220FF
:1028400009FB0B22924489B241EA0A414EF8041B6B
:102850005CF8042BBEF80010120C09FB021101EB0E
:102860001A4167454FEA114AE6D8019AA950043542
:102870009AE7013E9CE700BF99640008AA6400083B
:102880002DE9F843154612F0030206460F4607D01D
:10289000254C013A002354F82220FFF79BFE0746FF
:1028A000AD103DD0746A7CB91020FFF71BFE0246C4
:1028B000706228B91D4B1E484FF4D77100F072FAB0
:1028C000C0E901440460C460D6F82480D8F8084008
:1028D0004CB940F271213046FFF712FF0023C8F8CF
:1028E0000800044603604FF00009EB070AD539469B
:1028F00022463046FFF71AFF394680463046FFF73A
:1029000047FE47466D100BD0206838B92246214655
:102910003046FFF70BFF2060C0F800900446E4E764
:102920003846BDE8F88300BF186600080564000853
:10293000AA6400082DE9F0470C464968236903EBB7
:102940006218A368074691464FEA621A08F1010629
:10295000B3420BDB3846FFF7DBFD054648B90246BC
:102960002A4B2B4840F2D91100F01CFA01315B00D0
:10297000EEE7002300F1140100F110021846534560
:1029800037DB20692AEAEA7A04F1140319F01F09F7
:1029900001EB8A0103EB80002FD0C9F1200E8A469B
:1029A0004FF0000C1A6802FA09F242EA0C024AF8E7
:1029B000042B53F8042B984222FA0EFCF2D8031B86
:1029C000153B23F00303043304F11502904238BF92
:1029D000042341F803C0BCF1000F01D008F1020646
:1029E000013E38462E612146FFF7D2FD2846BDE85C
:1029F000F08742F8040F0133C1E7043953F8042B80
:102A000041F8042F9842F9D8EAE700BF996400081A
:102A1000AA64000830B502690C69121B0ED100F1DE
:102A20001403143103EB840001EB840150F8045DBE
:102A300051F8044DA54203D005D30122104630BD04
:102A40008342F3D3FAE74FF0FF32F7E72DE9F84F6F
:102A50000C460646114620469046FFF7DBFF051E52
:102A600010D129463046FFF753FD30B93A4B0246A4
:102A700040F23221394800F095F90123C0E90435CC
:102A8000BDE8F88FA4BF4346A0463046D8F80410EE
:102A9000A6BF1C4600250125FFF73AFD20B92E4BA5
:102AA00002464FF41071E5E7D8F810702669C5604A
:102AB00004F1140908F1140500F1140E05EB870C5C
:102AC00009EB860608F11002F246002159F8043B92
:102AD00052F804BF1FFA83F811FA8BF11B0CA1EB1B
:102AE0000808C3EB1B4303EB28431FFA88F81914AB
:102AF0004E4548EA03434AF8043BE7D8331B153BED
:102B000023F0030304331534A64238BF04231D44C5
:102B100073449E462E4666450ED30CF10302521BAB
:102B200022F00302033DAC4538BF00221A4452F89C
:102B3000043D7BB10761A3E756F8048B11FA88F2D4
:102B4000141404EB184492B242EA04424EF8042BE7
:102B50002114E0E7013FEAE799640008AA6400084D
:102B60002DE9F7438946012157EC106B9046FFF79A
:102B7000CFFC044630B90246254B264840F20A31C4
:102B800000F010F9C7F30A55C7F3130335BB002E45
:102B9000019328D068460096FFF782FD009900B3A4
:102BA000019AC0F1200302FA03F30B43C2406361B0
:102BB0000192019BA361002B14BF0222012222611A
:102BC000D5B1A5F233450544C9F80050C0F1350030
:102BD000C8F80000204603B0BDE8F08343F480133A
:102BE000D5E76161E5E701A8FFF75AFD019B636145
:102BF000012222612030E3E704EB8203A0F232409D
:102C0000C9F800001869FFF72BFDC0EB4210DFE7A1
:102C100099640008AA64000813B54A43114601925A
:102C200000F056F8044618B1019A0021FEF76AF93F
:102C3000204602B010BD000037B5002944D051F83D
:102C4000043C0190002BA1F10404B8BFE41800F08B
:102C5000EBF81E4A0198136833B96360146003B03F
:102C6000BDE8304000F0E6B8A34208D925686119F4
:102C70008B4201BF19685B6849192160EDE71A466C
:102C80005B680BB1A342FAD911685518A5420BD164
:102C9000246821445418A3421160E0D11C685B6889
:102CA000536021441160DAE702D90C230360D6E7B0
:102CB000256861198B4204BF19685B68636004BFB3
:102CC000491921605460CAE703B030BD00020020FA
:102CD000F8B5CD1C25F0030508350C2D38BF0C25A3
:102CE000002D064601DBA94203D90C2333600020E6
:102CF000F8BD00F099F821490A6814469CB9204FA4
:102D00003B6823B92146304600F03CF8386029463C
:102D1000304600F037F8431C23D10C233360304693
:102D200000F088F8E3E723685B1B17D40B2B03D96B
:102D300023601C44256004E06368A2420CBF0B6062
:102D40005360304600F076F804F10B00231D20F0AC
:102D50000700C21ACCD01B1AA350C9E722466468E8
:102D6000CCE7C41C24F00304A042E3D0211A30466F
:102D700000F008F80130DDD1CFE700BF00020020ED
:102D80000402002038B5064D0023044608462B6097
:102D900000F0CEFD431C02D12B6803B1236038BD87
:102DA000080200201FB514461A46094B1B68054649
:102DB000D8684CB1074B0091CDE9013406492B4648
:102DC00000F00EF800F064FA044B1C46F3E700BF75
:102DD0000000002024660008316600085F660008D5
:102DE0000EB403B5014603AB054853F8042B006845
:102DF000019300F04FF802B05DF804EB03B07047A8
:102E00000000002082B001B901A942B14BB1137892
:102E10000B601278101E18BF012002B070471046D8
:102E2000FBE76FF00100F8E7014800F0F1BB00BFDD
:102E30000C020020014800F0ECBB00BF0C02002097
:102E40009368013B002B10B4936008DA9469A342A5
:102E500001DB0A2903D15DF8044B00F04BB913687C
:102E6000581C1060197008465DF8044B7047F8B59F
:102E700006460F461446D518AC4201D1002007E0A3
:102E800014F8011B3A463046FFF7DAFF431CF3D132
:102E9000F8BD00002DE9F04F0D469DB01446984650
:102EA000064618B183690BB900F014FB894B9D42AB
:102EB0001BD175686B6ED90705D4AB899A0502D40E
:102EC000A86D00F0A5FBAB891B0701D52B69EBB9F9
:102ED0002946304600F06EF9C0B16B6EDC070ED5A6
:102EE0004FF0FF301DB0BDE8F08F7B4B9D4201D10C
:102EF000B568DFE7794B9D4208BFF568DAE7AB8933
:102F00009805EDD4A86D00F084FBE9E70023099350
:102F100020238DF82930CDF80C803023DFF8C081D4
:102F20008DF82A304FF0010923469A4613F8012BF9
:102F30000AB1252AF9D1BAEB040B0BD05B46224625
:102F400029463046FFF793FF013000F0AA80099A26
:102F50005A4409929AF80030002B00F0A280002316
:102F60004FF0FF32CDE905230AF1010A04930793DC
:102F70008DF853301A935446052214F8011B584813
:102F8000FDF736F9049AD8B9D10644BF20238DF84D
:102F90005330130744BF2B238DF853309AF8003079
:102FA0002A2B15D0079A544600204FF00A0C2146D0
:102FB00011F8013B303B092B4ED9B0B1079214E018
:102FC000A0EB080309FA03F313430493A246D2E7E4
:102FD000039B191D1B680391002BBBBF5B4242F092
:102FE000020207930793B8BF049223782E2B0CD1CB
:102FF00063782A2B35D1039B1A1D1B680392002B83
:10300000B8BF4FF0FF3302340593DFF8E4A0217816
:1030100003225046FDF7ECF840B14023A0EB0A0034
:1030200003FA00F0049B03430134049314F8011BDA
:103030002C488DF828100622FDF7DAF800283FD03A
:10304000294B1BBB039B073323F007030833039370
:10305000099B3B44099367E70CFB02320C460120B5
:10306000A5E700230134059319464FF00A0C2046CA
:1030700010F8012B303A092A03D9002BC5D005914D
:10308000C3E70CFB012104460123F0E703AB0093E7
:103090002A46164B04A93046FDF7DCFF0746781C8C
:1030A000D6D16B6ED90705D4AB899A0502D4A86D29
:1030B00000F0AFFAAB895B063FF512AF099811E754
:1030C00003AB00932A46094B04A93046FEF766FA83
:1030D000E4E700BF9C670008BC6700087C67000845
:1030E0006A66000874660008551000086F2E000814
:1030F00070660008F8B50E461446054618B1836997
:103100000BB900F0E7F9214B9C422BD16C68A36905
:10311000A360A3891A072FD523696BB3236920689D
:10312000C01A6369F6B28342374604DC214628465A
:1031300000F03CF930BBA368013BA36023685A1C34
:1031400022601E7063690130834204D0A389DB07CB
:1031500006D50A2E04D12146284600F027F988B961
:103160003846F8BD0A4B9C4201D1AC68CFE7094B09
:103170009C4208BFEC68CAE72146284600F01AF8CE
:103180000028CBD04FF0FF37EAE700BF9C6700086C
:10319000BC6700087C67000849B1FF2A85BF8A2305
:1031A00003600A704FF0FF3098BF01207047084657
:1031B00070470000324B70B51D6806460C4625B1BD
:1031C000AB6913B9284600F085F92E4B9C420FD10C
:1031D0006C68A389B4F90C2019072CD4DD0611D42E
:1031E0000923336042F04003A3814FF0FF303EE0FB
:1031F000254B9C4201D1AC68EBE7244B9C4208BFB5
:10320000EC68E6E7580712D5616B41B104F144035D
:10321000994202D03046FFF70FFD00236363A38974
:1032200023F02403A3810023636023692360A3891F
:1032300043F00803A38123694BB9A38903F42073E6
:10324000B3F5007F03D02146304600F009FAA0898B
:10325000B4F90C2010F001030AD00023A3606369C5
:103260005B42A361236943B910F08000BAD170BDFD
:10327000810758BF6369A360F4E70020F7E700BF48
:10328000000000209C670008BC6700087C670008FD
:1032900008B5062000F04CFA012000F05FFB0000AA
:1032A0008A892DE9F041054610070C4658D44B6831
:1032B000002B05DC0B6C002B02DC0020BDE8F0814C
:1032C000E66A002EF9D0002312F480522F682B609A
:1032D00032D0606DA3895A0705D56368C01A636B45
:1032E0000BB1236CC01A00230246E66A216A284605
:1032F000B047431CA38906D129681D292CD82A4A26
:10330000CA40D60728D500226260D904226922600B
:1033100004D5421C01D12B6803B96065616B2F6035
:103320000029CAD004F14403994202D02846FFF78D
:1033300083FC00206063C1E7216A01232846B0476F
:10334000411CC7D12B68002BC4D01D2B01D0162BDC
:1033500001D12F60B1E7A38943F04003A381ADE71A
:103360000F69002FA9D093070E6808BF4B690F6043
:1033700018BF0023A6EB07088B60B8F1000F9CDD97
:10338000216AA66A43463A462846B047002806DC2A
:10339000A38943F04003A3814FF0FF308EE7074439
:1033A000A8EB0008E9E700BF0100402038B50B6931
:1033B00005460C4613B90025284638BD18B1836967
:1033C0000BB900F087F8144B9C421BD16C68B4F920
:1033D0000C30002BEFD0626ED00704D4990502D4D4
:1033E000A06D00F015F928462146FFF759FF636EDE
:1033F000DA070546E0D4A3899B05DDD4A06D00F073
:1034000008F9D9E7054B9C4201D1AC68DFE7044BD2
:103410009C4208BFEC68DAE79C670008BC670008BC
:103420007C670008002310B50446C0E90033C0E9FA
:103430000433836081814366C28183611946082217
:103440005C30FDF75FFD054B6362054BA362054BE6
:10345000E362054B2462236310BD00BF6937000897
:103460008B370008C3370008E7370008014900F030
:10347000AFB800BFAD33000870B568224D1E55438C
:103480000E4605F17401FFF723FC044640B100210C
:10349000C0E900160C30A06005F16802FDF732FDAE
:1034A000204670BD014800F0B3B800BF0D020020F7
:1034B000014800F0AEB800BF0D020020014800F046
:1034C000A7B800BF0E020020014800F0A2B800BF5C
:1034D0000E02002010B50446FFF7F0FFA3691BB1F0
:1034E000BDE81040FFF7F0BFC4E912332365134B6A
:1034F000134A1B68A262A34204BF0123A3612046B2
:1035000000F020F86060204600F01CF8A060204623
:1035100000F018F80022E06004216068FFF782FFE5
:10352000A06801220921FFF77DFFE0680222122135
:10353000FFF778FF0123A361D2E700BFC063000853
:103540006D340008F8B50746FFF7ACFF1E4B1E6848
:10355000B36913B93046FFF7BDFF4836D6E90134E9
:10356000013B03D533680BB33668F7E7B4F90C5069
:10357000D5B9164BE36004F15800656600F047F8D2
:10358000FFF796FFC4E90155C4E904552560A5611C
:103590000822294604F15C00FDF7B4FCC4E90D558E
:1035A000C4E912552046F8BD6834D9E704213846ED
:1035B000FFF762FF044630600028D5D1FFF778FF9F
:1035C0000C233B60EEE700BFC06300080100FFFF73
:1035D0002DE9F8430646884600F148040027D4E95F
:1035E0000195B9F1010905D52468002CF7D13846B9
:1035F000BDE8F883AB89012B07D9B5F90E3001334B
:1036000003D029463046C04707436835E9E770478D
:103610007047704770B50E46B1F90E10002996B08C
:1036200014461D4608DAB6F90C3000222A601A0644
:1036300010D44FF480630EE06A4600F0FBF80028D7
:10364000F1DB019A02F47042A2F500535A425A414A
:103650002A60EEE740230020236016B070BD000012
:103660008B8973B59D0706460C4607D504F14703C1
:10367000236023610123636102B070BD01AB6A4620
:10368000FFF7C8FF009905463046FFF721FB48B910
:10369000B4F90C309A05EFD423F0030343F002038E
:1036A000A381E3E70D4BB362A389206043F080035D
:1036B000A381009B6361019B20615BB1B4F90E1093
:1036C000304600F0C9F828B1A38923F0030343F082
:1036D0000103A381A0890543A581CDE76D340008CE
:1036E0001F2938B504460D4604D9162303604FF050
:1036F000FF3038BD426C12B152F821304BB9204630
:1037000000F030F82A4601462046BDE8384000F077
:1037100017B8012B0AD0591C03D1162303600120CE
:10372000E7E7002442F82540284698470020E0E7D4
:10373000024B01461868FFF7D3BF00BF000000200E
:1037400038B5074D00230446084611462B6000F0AB
:10375000D7F8431C02D12B6803B1236038BD00BFEA
:103760000802002000F0BCB810B50C46B1F90E10EC
:1037700000F094F80028ABBF636DA3891B1823F4F5
:103780008053ACBF6365A38110BD2DE9F0411F4696
:103790008B89DB0505460C46164605D5B1F90E109A
:1037A0000223002200F068F8A389B4F90E1023F474
:1037B0008053A38132463B462846BDE8F04100F0E5
:1037C00017B810B50C46B1F90E1000F055F8431CAF
:1037D000A38915BF606523F4805343F48053A3810C
:1037E00018BFA38110BDB1F90E1000F013B800008E
:1037F00038B5074D04460846114600222A601A468D
:1038000000F0A4F8431C02D12B6803B1236038BD3B
:103810000802002038B5064D0023044608462B60F8
:1038200000F04EF8431C02D12B6803B1236038BD71
:103830000802002038B5074D00230446084611460B
:103840002B6000F045F8431C02D12B6803B12360C4
:1038500038BD00BF0802002038B5064D00230446DD
:1038600008462B6000F044F8431C02D12B6803B1DA
:10387000236038BD0802002038B5074D04460846CD
:10388000114600222A601A4600F042F8431C02D179
:103890002B6803B1236038BD0802002038B5074DFE
:1038A00004460846114600222A601A4600F038F8FD
:1038B000431C02D12B6803B1236038BD08020020ED
:1038C000024B58221A604FF0FF3070470802002068
:1038D000024B58221A604FF0FF3070470802002058
:1038E000024B58221A604FF0FF3070470802002048
:1038F000024B58221A600020704700BF08020020C7
:10390000024B58221A604FF0FF3070470802002027
:10391000024B58221A604FF0FF3070470802002017
:10392000024B58221A604FF0FF3070470802002007
:10393000044A05491368002B08BF0B461844106061
:10394000184670471002002050300120024B5822C8
:103950001A604FF0FF30704708020020FEE700BFFA
:1039600010B504462046FCF73BFC4FF0FF3382B213
:103970002146044801F0FBF84FF47A7002F0AEF9EA
:10398000F0E700BF5C02002010B504462046FCF7BB
:1039900027FC4FF0FF3382B22146044801F0E7F8DC
:1039A0004FF4FA7002F09AF9F0E700BF5C020020D1
:1039B00008B50268034B9A4200D008BD00F09AFF98
:1039C000FBE700BF000C004072B6FEE700B595B003
:1039D0003022002108A8FDF795FA002303930493F1
:1039E00005930693079301931F4A116C41F0805190
:1039F0001164126C02F080520192019A02931B49E9
:103A00000A6822F4404242F400420A600A6802F462
:103A100040420292029A0222089201210B91102147
:103A20000C910E920F93082310935423119312922A
:103A30000423139308A800F0C9FA80B90F23039355
:103A400002210491002305934FF4805206920793BC
:103A500003A800F009FD20B915B05DF804FBFFF7DD
:103A6000B3FFFFF7B1FF00BF003802400070004015
:103A700000B585B000F024FFFFF7A8FF00F03CF888
:103A800000F0D2F803AB019302230093154B4FF4DF
:103A90007A721549154801F035FF012808D04FF01A
:103AA000500383F31188BFF36F8FBFF34F8FFEE78F
:103AB00002AB0193012300930D4B4FF47A720A4934
:103AC0000C4801F01FFF012808D04FF0500383F38A
:103AD0001188BFF36F8FBFF34F8FFEE701F048FFF0
:103AE000FEE700BFDC670008F867000861390008DE
:103AF000006800088939000882B0002100910B4B52
:103B00001A6B42F080021A631A6B02F08002009274
:103B1000009A01911A6B42F001021A631B6B03F0C9
:103B200001030193019B02B0704700BF00380240BF
:103B3000FEE7FEE7FEE7FEE7FEE7704708B502484E
:103B400000F010F908BD00BF1402002082B000216F
:103B500000910B4B5A6C42F480425A645A6C02F446
:103B600080420092009A01911A6C42F080521A64CD
:103B70001B6C03F080530193019B02B0704700BFA0
:103B80000038024030B589B0044600230193214B30
:103B90001A6C42F008021A641B6C03F008030193CC
:103BA000019B02A903A800F035FD069BCBB900F0EC
:103BB00011FD03461848A0FB03239B0C013B17484B
:103BC000174A026040F2E732C2604360002303619B
:103BD0008360836100F0CCF9054630B1284609B016
:103BE00030BD00F0F7FC4300E4E70C4800F07AF841
:103BF00005460028F2D1322000F054FE0F2C01D9E6
:103C00000125EBE700222146322000F013FE054B90
:103C10001C60E3E70038024083DE1B4314020020EF
:103C2000000C0040D801002008B50A480A4B036088
:103C30004FF4E133436000238360C36003610C22CF
:103C400042618361C36100F062FF00B908BDFFF704
:103C5000BBFEFBE75C0200200044004000B589B0D9
:103C60000023039304930593069307930268154B6F
:103C70009A4202D009B05DF804FB0021019103F5DE
:103C8000FA331A6C42F400321A641A6C02F40032ED
:103C90000192019A02911A6B42F001021A631B6BA6
:103CA00003F001030293029B0C230393022304936A
:103CB000032306930723079303A9034800F0C8FCD6
:103CC000D8E700BF0044004000000240034AD2F899
:103CD000883043F47003C2F88830704700ED00E08C
:103CE0007047000090F83D30DBB2012B2FD102234A
:103CF00080F83D300268D36843F00103D360036865
:103D0000154A934218D0B3F1804F15D0A2F57C42EA
:103D1000934211D002F5806293420DD002F5806289
:103D2000934209D002F59A32934205D01A6842F0C4
:103D300001021A60002070479A6802F00702062A02
:103D400007D01A6842F001021A6000207047012073
:103D500070470020704700BF000001407047704767
:103D60007047704770B504460368DE681D6915F03A
:103D7000020F10D016F0020F0DD06FF002021A6180
:103D80000123037703689B6913F0030F5ED0FFF7ED
:103D9000E6FF0023237715F0040F12D016F0040F6E
:103DA0000FD023686FF004021A610223237723687F
:103DB0009B6913F4407F4FD02046FFF7D0FF0023CC
:103DC000237715F0080F12D016F0080F0FD02368D4
:103DD0006FF008021A61042323772368DB6913F06C
:103DE000030F40D02046FFF7BAFF0023237715F0DA
:103DF000100F12D016F0100F0FD023686FF01002C2
:103E00001A61082323772368DB6913F4407F31D0DC
:103E10002046FFF7A4FF0023237715F0010F02D0FF
:103E200016F0010F2DD115F0800F02D016F0800F83
:103E30002FD115F0400F02D016F0400F31D115F000
:103E4000200F02D016F0200F33D170BDFFF786FF90
:103E50002046FFF785FF9CE72046FFF77FFF2046BF
:103E6000FFF77EFFABE72046FFF778FF2046FFF71E
:103E700077FFBAE72046FFF771FF2046FFF770FF94
:103E8000C9E723686FF001021A612046FFF790FD31
:103E9000C9E723686FF080021A61204600F095F8A8
:103EA000C7E723686FF040021A612046FFF759FF09
:103EB000C5E723686FF020021A61204600F084F8FD
:103EC000C3E700000368294A90420ED0B0F1804F4A
:103ED0000BD0A2F57C42904207D002F5806290425E
:103EE00003D002F58062904203D123F070034A6848
:103EF00013431E4A90421AD0B0F1804F17D0A2F55A
:103F00007C42904213D002F5806290420FD002F5BD
:103F1000806290420BD002F59A32904207D002F5AF
:103F20008062904203D002F58062904203D123F474
:103F30004073CA68134323F080034A691343036044
:103F40008B68C3620B688362084B98420AD00123D6
:103F50004361036913F0010F03D0036923F00103E8
:103F6000036170470B690363F1E700BF0000014084
:103F700040B310B5044690F83D30F3B1022384F805
:103F80003D30214651F8040BFFF79CFF012384F8D4
:103F9000463084F83E3084F83F3084F8403084F86E
:103FA000413084F8423084F8433084F8443084F857
:103FB000453084F83D30002010BD80F83C30FFF7DC
:103FC0008FFEDBE70120704770477047002800F044
:103FD000E08170B582B00446036813F0010F3BD056
:103FE0009F4B9B6803F00C03042B2CD09C4B9B68CD
:103FF00003F00C03082B21D06368B3F5803F4FD04A
:10400000B3F5A02F52D0964B1A6822F480321A6072
:104010001A6822F480221A606368002B50D000F0E6
:1040200075FC05468E4B1B6813F4003F14D100F05D
:104030006DFC401B6428F5D90320B1E1884B5B6817
:1040400013F4800FD8D0864B1B6813F4003F03D0C5
:104050006368002B00F09F81236813F0020F54D097
:104060007F4B9B6813F00C0F3ED07D4B9B6803F099
:104070000C03082B33D0E368002B68D0794B012266
:104080001A6000F043FC0546754B1B6813F0020FE5
:1040900054D100F03BFC401B0228F5D903207FE1FE
:1040A0006F4A136843F480331360B5E76C4B1A68AA
:1040B00042F480221A601A6842F480321A60ABE738
:1040C00000F024FC0546664B1B6813F4003FC3D088
:1040D00000F01CFC401B6428F5D9032060E1604B14
:1040E0005B6813F4800FC6D15D4B1B6813F0020FA1
:1040F00003D0E368012B40F05081594A136823F044
:10410000F803216943EAC1031360236813F0080F21
:1041100042D063696BB3534B0122C3F8802E00F089
:10412000F5FB05464E4B5B6F13F0020F34D100F0E8
:10413000EDFB401B0228F5D9032031E1484A136802
:1041400023F0F803216943EAC1031360DDE7454B1F
:1041500000221A6000F0DAFB0546414B1B6813F0A1
:10416000020FD2D000F0D2FB401B0228F5D9032069
:1041700016E13C4B0022C3F8802E00F0C7FB054639
:10418000374B5B6F13F0020F06D000F0BFFB401BF4
:104190000228F5D9032003E1236813F0040F77D038
:1041A0002F4B1B6C13F0805F33D1002301932C4BFA
:1041B0001A6C42F080521A641B6C03F08053019316
:1041C000019B0125284B1B6813F4807F23D0A36833
:1041D000012B34D0052B38D0214B1A6F22F001026D
:1041E0001A671A6F22F004021A67A368002B3DD0E9
:1041F00000F08CFB06461A4B1B6F13F0020F46D1E2
:1042000000F084FB801B41F288339842F3D90320ED
:10421000C6E00025D6E7144A136843F480731360A0
:1042200000F074FB0646104B1B6813F4807FCED160
:1042300000F06CFB801B0228F5D90320B0E0084A8F
:10424000136F43F001031367CFE7054B1A6F42F07A
:1042500004021A671A6F42F001021A67C5E700BF2D
:1042600000380240000047420070004000F04EFB62
:104270000646524B1B6F13F0020F08D000F046FBAE
:10428000801B41F288339842F3D9032088E0EDB9CE
:10429000A369002B00F08380484A926802F00C0268
:1042A000082A51D0022B17D0454B00221A6600F085
:1042B0002DFB0446414B1B6813F0007F42D000F0F9
:1042C00025FB001B0228F5D9032069E03B4A136C4B
:1042D00023F080531364DBE7394B00221A6600F0A9
:1042E00015FB0546354B1B6813F0007F06D000F028
:1042F0000DFB401B0228F5D9032051E0E369226A37
:104300001343626A43EA8213A26A5208013A43EAFB
:104310000243E26A43EA0263284A5360284B0122BF
:104320001A6600F0F3FA0446244B1B6813F0007F72
:1043300006D100F0EBFA001B0228F5D903202FE08C
:1043400000202DE000202BE0012B2BD01B4B5B68C5
:1043500003F48001E269914226D103F03F02216A11
:104360008A4223D1616A47F6C0721A40B2EB811FBC
:104370001ED103F44031A26A5208013AB1EB024F58
:1043800018D103F07063E26AB3EB026F14D100201E
:1043900006E001207047012002E0012000E000203B
:1043A00002B070BD0120FBE70120F9E70120F7E72B
:1043B0000120F5E70120F3E70120F1E70038024092
:1043C0000000474208B5254B9B6803F00C03042B03
:1043D0003FD0082B3FD1214B5A6802F03F025B6867
:1043E00013F4800F12D01D4B5968C1F388111C487B
:1043F0000023A1FB0001FCF7DFFB184B5B68C3F354
:10440000014301335B00B0FBF3F025E0134B596827
:10441000C1F3881C4FEA4C11B1EB0C006EEB0E0E91
:104420004FEA8E1343EA90638101091A63EB0E038E
:10443000DB0043EA5173C90011EB0C0C43F100039C
:10444000990200234FEA8C2041EA9C51FCF7B4FB0F
:10445000D3E7034800E0034808BD00BF003802402E
:1044600040787D010024F400002800F09B8070B5A6
:104470000D4604464F4B1B6803F007038B4208D2DE
:10448000CBB24C4A1370136803F007038B4240F021
:104490008B80236813F0020F17D013F0040F04D0A1
:1044A000454A936843F4E0539360236813F0080F80
:1044B00004D0414A936843F4604393603E4A936852
:1044C00023F0F003A1680B439360236813F0010FFE
:1044D00032D06368012B21D09A1E012A25D9364A91
:1044E000126812F0020F61D033498A6822F0030289
:1044F00013438B6000F00AFA06462F4B9B6803F0CB
:104500000C036268B3EB820F16D000F0FFF9801B3A
:1045100041F288339842F0D9032042E0264A1268DB
:1045200012F4003FE0D101203BE0234A126812F070
:10453000007FD9D1012034E01E4B1B6803F0070334
:10454000AB4207D9EAB21B4B1A701B6803F0070392
:10455000AB422DD1236813F0040F06D0164A93689E
:1045600023F4E053E1680B439360236813F0080FD2
:1045700007D0114A936823F46043216943EAC103D9
:104580009360FFF71FFF0C4B9B68C3F303130B4AA9
:10459000D35CD8400A4B18600A4B1868FFF7F2FA50
:1045A000002070BD012070470120FAE70120F8E7E4
:1045B0000120F6E7003C0240003802401C68000879
:1045C000D0010020D8010020014B1868704700BFBF
:1045D000D001002008B5FFF7F7FF044B9B68C3F339
:1045E0008223034AD35CD84008BD00BF0038024094
:1045F0002C68000808B5FFF7E7FF044B9B68C3F37E
:104600004233034AD35CD84008BD00BF00380240A3
:104610002C6800080F2303600B4B9A6802F003021A
:1046200042609A6802F0F00282609A6802F4E052F6
:10463000C2609B68DB0803F4E0530361034B1B6813
:1046400003F007030B60704700380240003C024053
:1046500000230F2B00F2D28070B582B060E0856835
:104660005E000324B44025EA0405CC68B4402C4322
:104670008460456825EA02054C68C4F300129A403C
:104680002A4342605AE0DC08083450F8246003F002
:10469000070295000F22AA4026EA020E0A69AA40E4
:1046A00042EA0E0240F824205CE0042200E00022EE
:1046B00002FA0EF22A430234514D45F82420514AA1
:1046C00094686FEA0C0224EA0C054E6816F4801F09
:1046D00001D04CEA04054B4CA560E46802EA0405ED
:1046E0004E6816F4001F01D04CEA0405454CE56005
:1046F000646802EA04054E6816F4003F01D04CEAF3
:104700000405404C6560246822404D6815F4803FE4
:1047100001D04CEA04023B4C226001330F2B6BD8D2
:1047200001229A400C6804EA020C32EA0404F4D133
:104730004C6804F00304013C012C90D94A6802F053
:104740000302032A09D0C4685D000322AA4024EAB8
:1047500002048A68AA402243C2604A6802F0030247
:10476000022A90D004684FEA430E032202FA0EF2A6
:1047700024EA02044A6802F0030202FA0EF222431B
:1047800002604A6812F4403FC7D0002201921E4ADC
:10479000546C44F480445464526C02F4804201929C
:1047A000019A9C08A51C164A52F8255003F00302F2
:1047B0004FEA820E0F2202FA0EF225EA0205134A90
:1047C00090423FF474AF02F5806290420ED002F541
:1047D000806290420CD002F5806290420AD002F5CD
:1047E000806290423FF461AF072261E701225FE7F8
:1047F00002225DE703225BE702B070BD704700BF95
:1048000000380140003C01400038024000000240F6
:10481000074AD36823F4E0631B041B0C000200F476
:10482000E060034343F0BF6343F40033D360704759
:1048300000ED00E000B5194BDB68C3F30223C3F1C0
:10484000070CBCF1040F28BF4FF0040C03F1040E59
:10485000BEF1060F18D9033B4FF0FF3E0EFA0CFCD9
:1048600021EA0C0199400EFA03F322EA03031943EB
:1048700000280BDB0901C9B200F1604000F561407E
:1048800080F800135DF804FB0023E5E700F00F005B
:104890000901C9B2024B1954F4E700BF00ED00E072
:1048A00014ED00E0002807DB00F01F02400901239F
:1048B0009340024A42F82030704700BF00E100E018
:1048C00008B50B4B1A6842F400721A601A6842F479
:1048D00080621A601A6842F480721A600320FFF73F
:1048E00097FF0F20FFF74EF9FFF730F9002008BDC2
:1048F000003C0240034A1168034B1B780B441360D1
:10490000704700BFA4020020D4010020014B1868AA
:10491000704700BFA4020020026802F10C0353E8B4
:10492000003F23F490730C3242E800310029F3D1A8
:10493000026802F1140353E8003F23F0010314322C
:1049400042E800310029F3D1036B012B05D020236D
:1049500080F84230002303637047026802F10C03C1
:1049600053E8003F23F010030C3242E800310029E5
:10497000F3D1ECE738B504460268136923F44053D9
:10498000C1680B431361836802691343426913438F
:10499000C2691A430168CB6823F4164323F00C0361
:1049A0001343CB600268536923F4407381690B435E
:1049B00053610368314A934206D002F58062934204
:1049C00002D0FFF707FE01E0FFF714FEE369B3F53D
:1049D000004F29D00021031849411B1841F1000163
:1049E000C90041EA5371DB00181863684FEA83027B
:1049F0004FEA937341F10001FCF7DEF8204DA5FB6F
:104A000000325109642303FB11031B013233A5FB60
:104A100003235B0903F0F00202EB011203F00F0322
:104A2000216813448B6038BD0023021843EB030157
:104A3000121841F10001C90041EA5271D200101868
:104A400041F10001626892185B41FCF7B5F80C4D2A
:104A5000A5FB00325109642303FB1103DB00323351
:104A6000A5FB03235B095A0002F4F87202EB011262
:104A700003F00703216813448B60D4E70010014062
:104A80001F85EB512DE9F04383B005460E461746CE
:104A90009946DDF828802C68246836EA04030CBFA8
:104AA0004FF0010C4FF0000CBC4528D1B8F1FF3F8E
:104AB000F1D0FFF72BFFA0EB0900404523D8B8F158
:104AC000000F22D02B68DA6812F0040FE3D0802E9A
:104AD000E1D0402EDFD01A6812F0080FDBD000249E
:104AE00001941A6801925B680193019B2846FFF7C5
:104AF00013FF08236B6485F84040012000E000208C
:104B000003B0BDE8F0830320FAE70320F8E760B3C1
:104B100010B5044690F8413013B3242384F8413093
:104B20002268D36823F40053D3602046FFF722FFA6
:104B30002268136923F4904313612268536923F0B8
:104B40002A0353612268D36843F40053D3600020E2
:104B50006064202384F8413084F84230606310BDE3
:104B600080F84030FFF77AF8D7E7012070472DE949
:104B7000F04182B01E4690F84130DBB2202B56D176
:104B800004460D469046002955D00AB901204FE051
:104B900000234364212380F84130FFF7B7FE074626
:104BA000A4F82480A4F82680A368B3F5805F02D01F
:104BB0004FF0000814E023692BB34FF000080FE01A
:104BC000202384F84130032032E038F8023B226889
:104BD000C3F308035360E28C92B2013A92B2E284CA
:104BE000E38C9BB293B100963B4600228021204685
:104BF000FFF748FF0028E3D1002DE6D015F8012B80
:104C000023685A60E7E7A8460025E9E700963B4697
:104C1000002240212046FFF735FF18B9202384F8F1
:104C2000413005E0202384F84130032000E00220D9
:104C300002B0BDE8F0810120FAE7000082B0002355
:104C400001930D4B1B68B3F1FF3F08D04FF05003A9
:104C500083F31188BFF36F8FBFF34F8FFEE74FF0E1
:104C6000500383F31188BFF36F8FBFF34F8F019B06
:104C7000002BFCD002B07047DC010020084800681F
:104C8000006880F308884FF0000080F3148862B653
:104C900061B6BFF34F8FBFF36F8F00DF00BF00001F
:104CA00008ED00E0DFF80C00016841F470010160DC
:104CB0007047000088ED00E04FF0807340F8043C3E
:104CC00021F0010140F8081C054B40F80C3C40F86D
:104CD000202C6FF0020340F8243C4438704700BF9A
:104CE0003D4C000800000000000000000000000033
:104CF000074B19680868B0E8F04F80F30988BFF3E4
:104D00006F8F4FF0000080F311887047AFF3008081
:104D10000C2F01204FF0500383F31188BFF36F8FE6
:104D2000BFF34F8F0B4A136801331360012B00D080
:104D300070474FF0E023D3F8043D13F0FF0FF7D096
:104D40004FF0500383F31188BFF36F8FBFF34F8F82
:104D5000FEE700BFDC010020094B1B6843B94FF0A0
:104D6000500383F31188BFF36F8FBFF34F8FFEE7BC
:104D7000013B034A13600BB983F31188704700BFEE
:104D8000DC01002000000000000000000000000026
:104D9000EFF30980BFF36F8F154B1A681EF0100FE9
:104DA00008BF20ED108A20E9F04F10602DE90900BE
:104DB0004FF0500080F31188BFF34F8FBFF36F8F18
:104DC00000F0B2FF4FF0000080F3118809BC1968B1
:104DD0000868B0E8F04F1EF0100F08BFB0EC108A62
:104DE00080F30988BFF36F8F704700BFAFF3008077
:104DF0000C2F012008B54FF0500383F31188BFF347
:104E00006F8FBFF34F8F00F007FE28B14FF0E02304
:104E10004FF08052C3F8042D002383F3118808BD9E
:104E20004FF0E022002313619361054B1B68054995
:104E3000A1FB03139B09013B5361072313617047D7
:104E4000D0010020D34D62104FF0E023D3F8002DA5
:104E50003D4B9A421CD04FF0E023D3F8002D3B4B42
:104E60009A421ED030B583B0394B1A78D2B2019233
:104E7000FF221A701B78DBB28DF803309DF80330E7
:104E800003F05003334A1370334B07221A601BE0C0
:104E90004FF0500383F31188BFF36F8FBFF34F8F31
:104EA000FEE74FF0500383F31188BFF36F8FBFF31A
:104EB0004F8FFEE7284A1368013B13609DF80330CB
:104EC0005B00DBB28DF803309DF8033013F0800FE8
:104ED000F0D1214B1B68032B08D04FF0500383F314
:104EE0001188BFF36F8FBFF34F8FFEE71B021A4A83
:104EF000136003F4E0631360019BDBB2144A137088
:104F00004FF0E024D4F8203D43F47003C4F8203D72
:104F1000D4F8203D43F07043C4F8203DFFF780FFF4
:104F200000250E4B1D60FFF7BDFED4F8343F43F063
:104F30004043C4F8343FFFF7A1FE00F0F5FEFFF751
:104F40007DFE284603B030BD71C20F4170C20F41D3
:104F500000E400E0A8020020AC020020DC010020F8
:104F6000104A12F0070F1AD0D11D21F00701C1F528
:104F7000963313440A460C480260002141601344F2
:104F8000083B23F007030948036059601960991A28
:104F900051601360064B1960064B196070474FF45F
:104FA0009633E8E7B4020020C42E0120B0020020AE
:104FB000B82E0120B42E0120164B1A461B688342DE
:104FC000FBD3516802EB010C844509D0416800EB2A
:104FD000010C634509D00360904219D010607047FE
:104FE0004068014451601046F0E710B40A4C246850
:104FF000A3420BD05B681944416013681B680360CF
:10500000904200D010605DF8044B70470460F7E7F1
:10501000704700BFC42E0120B002002070B50546C5
:1050200000F0ECFC364B1B689BB13DB105F007036B
:10503000C3F11003DA43AA420ED31D44002D47DB0F
:10504000002D47D02F4B1B68AB4252D32E4A146819
:1050500006E0FFF785FFE8E70025EFE722461C465C
:105060006368AB4202D22368002BF7D1244B1B6844
:10507000A34240D0166808362368136063685B1B40
:10508000102B10D9601910F0070F08D04FF0500303
:1050900083F31188BFF36F8FBFF34F8FFEE7436039
:1050A0006560FFF789FF626816490B689B1A0B6001
:1050B000164909688B4201D214490B6042F0004244
:1050C000626000232360124A13680133136002E018
:1050D000002600E0002600F05BFD16F0070F0CD064
:1050E0004FF0500383F31188BFF36F8FBFF34F8FDF
:1050F000FEE70026EFE70026EDE7304670BD00BF73
:10510000B0020020B42E0120C42E0120B82E0120B0
:10511000BC2E0120A8B338B50446A0F1080550F80C
:10512000043C002B08DB4FF0500383F31188BFF3DE
:105130006F8FBFF34F8FFEE750F8082C42B14FF04E
:10514000500383F31188BFF36F8FBFF34F8FFEE7D8
:10515000002B00DB38BD23F0004340F8043C00F096
:105160004DFC54F8041C074A13680B44136028468E
:10517000FFF722FF044A13680133136000F008FDB3
:10518000E8E77047B42E0120C02E012000F108038B
:1051900043604FF0FF328260C3600361002303600D
:1051A000704700230361704730B40D68B5F1FF3FCD
:1051B00011D000F108031C465B681A68AA42FAD9AC
:1051C00063684B6099608C606160086103680133BB
:1051D000036030BC70470469F2E703694168826884
:1051E0008A60416851605A68824206D0002202619A
:1051F0001A68013A1A601868704782685A60F5E7C1
:1052000010B50446FFF786FDA36B23B90124FFF711
:10521000A3FD204610BD0024F9E70346026C6AB1E5
:1052200010B50846D9681144D9609C68A14201D3E1
:105230001968D960D968FDF75DF910BD704738B5B8
:105240000546FFF767FD95F8454064B201E0013C73
:1052500064B2002C0ADD6B6A43B105F1240000F052
:10526000F1FD0028F3D000F0B5FEF0E7FF2385F84C
:105270004530FFF771FDFFF74DFD95F8444064B2EE
:1052800001E0013C64B2002C0ADD2B6943B105F159
:10529000100000F0D7FD0028F3D000F09BFEF0E7EF
:1052A000FF2385F84430FFF757FD38BD38B590B17E
:1052B0000D460446C36B2BB1026C0021A3FB0223F5
:1052C00093B999B14FF0500383F31188BFF36F8FF7
:1052D000BFF34F8FFEE74FF0500383F31188BFF306
:1052E0006F8FBFF34F8FFEE70121EAE7FFF712FD53
:1052F0002368E26B216C01FB0230A0600020A063F8
:105300006360013A02FB0133E360FF2384F8443019
:1053100084F84530B5B923691BB9FFF71DFD01209D
:1053200038BD04F1100000F08DFD0028F5D04FF0DD
:10533000E0234FF08052C3F8042DBFF34F8FBFF32B
:105340006F8FEAE704F11000FFF720FF04F124005B
:10535000FFF71CFFE1E738B51D46049C0B4649B931
:105360002460E063236401212046FFF79FFF84F857
:105370004C5038BD2260F4E7F0B583B060B10C4604
:10538000174605460023A0FB041272B923B904FB9B
:1053900005F010F1510F0AD94FF0500383F3118833
:1053A000BFF36F8FBFF34F8FFEE70123EEE750305F
:1053B000FFF734FE064638B100903B4600F150023C
:1053C00021462846FFF7C7FF304603B0F0BDF0B5D1
:1053D00085B0019290B10F460446C1B100F000FEC5
:1053E000064600BB019B002B5ED04FF0500383F3B9
:1053F0001188BFF36F8FBFF34F8FFEE74FF050035D
:1054000083F31188BFF36F8FBFF34F8FFEE7036CF9
:10541000002BE3D04FF0500383F31188BFF36F8F5D
:10542000BFF34F8FFEE700263EE039462046FFF7E8
:10543000F4FE013DA563236923B9FFF78DFC01202C
:1054400005B0F0BD04F1100000F0FCFC0028F4D021
:105450004FF0E0234FF08052C3F8042DBFF34F8F7D
:10546000BFF36F8FE9E7FFF777FC0020E8E702A8BA
:1054700000F060FD012621E0002384F8443029E09B
:10548000002384F845302BE02046FFF7D8FE00F0DB
:105490007FFB09E02046FFF7D2FE00F079FB2046B3
:1054A000FFF7AEFE00283FD1FFF734FCA56B002DBF
:1054B000BBD1019B002BD6D0002ED8D0FFF74CFCDF
:1054C00000F09CFAFFF726FC94F844305BB2B3F18D
:1054D000FF3FD1D094F845305BB2B3F1FF3FCFD05E
:1054E000FFF73AFC01A902A800F030FD0028D1D155
:1054F0002046FFF785FE0028C6D0019904F124005C
:1055000000F05EFC2046FFF79AFE00F041FB002809
:10551000CAD14FF0E0234FF08052C3F8042DBFF3FF
:105520004F8FBFF36F8FBFE7002089E730B110B412
:105530000C4601468CB10020034612E04FF05003A8
:1055400083F31188BFF36F8FBFF34F8FFEE70E48D1
:1055500000EBC30008B1046041605DF8044B704784
:105560000133072BF6D8084A02EBC30252688A427D
:10557000EDD00028F4D1044A52F83320002AEFD1AC
:10558000014800EBC300EBE7CC2E012070B50446C8
:105590000D461646FFF7BEFB94F844305BB2B3F1FC
:1055A000FF3F0DD094F845305BB2B3F1FF3F0BD015
:1055B000FFF7D2FBA36B5BB12046FFF740FE70BD47
:1055C000002384F84430EDE7002384F84530EFE70A
:1055D0003246294604F1240000F00AFCECE7000002
:1055E000074B1B681B6823B9064B4FF0FF321A604C
:1055F0007047034B1B68DB681A68024B1A607047E0
:10560000102F0120BC2F012010B50446006BFFF7BE
:1056100081FD2046FFF77EFD10BD2DE9F843804651
:105620000C4616469946089F0A9D9200A521286BB4
:10563000FBF768FC2A6B06F18043013B02EB830316
:1056400023F007066CB10022092A07D8A15CAB1829
:1056500083F83410A15C09B10132F5E7002385F825
:105660003D30042F08D94FF0500383F31188BFF366
:105670006F8FBFF34F8FFEE7EF62AF64281DFFF718
:1056800090FD05F11800FFF78CFD2D61C7F10507AE
:10569000AF616D624A4641463046FFF70DFB286018
:1056A000099B03B11D60BDE8F883000038B50024F4
:1056B00007E004EB840293000E481844FFF766FDF0
:1056C0000134042CF5D90C4D2846FFF75FFD0B4C37
:1056D0002046FFF75BFD0A48FFF758FD0948FFF732
:1056E00055FD0948FFF752FD084B1D60084B1C6033
:1056F00038BD00BF182F0120902F0120A42F0120BA
:10570000C82F0120F42F0120E02F0120102F0120AD
:10571000142F012010B50446FFF7FCFA294A13683C
:1057200001331360284B1B685BB1284B1B686BB9B6
:10573000254B1B68DA6AE36A9A4207D8224B1C6041
:1057400004E0214B1C601368012B37D0204A1368FA
:10575000013313602364E36A01229A401D490868FB
:1057600002430A601C4A03EB830302EB83035B687A
:10577000A3609868E060211D41609960E36A03EBD3
:105780008301880002EB81016161115801311150E0
:10579000FFF7E2FA0D4B1B687BB10B4B1B68DA6A13
:1057A000E36A9A4209D24FF0E0234FF08052C3F8E7
:1057B000042DBFF34F8FBFF36F8F10BDFFF776FF40
:1057C000C4E700BF7C2F01200C2F0120DC2F01201B
:1057D000882F01208C2F0120182F01200F4B1B68D0
:1057E000D3B110B5FFF796FA0D4BDB68DC68201DCE
:1057F000FFF7F3FC0B4A1368013B1360074A136879
:10580000013B1360FFF7A8FA2046FFF7FDFE034BAC
:105810001B68002BE6D110BD704700BF802F012010
:10582000F42F01207C2F012008B5FFF7D7FF074B8D
:105830001B68012BF9D94FF0E0234FF08052C3F8D9
:10584000042DBFF34F8FBFF36F8FEEE7182F0120AA
:1058500070B504460D46244B1E68244B186804306E
:10586000FFF7BBFC50B9214B1B68DA6A012303FA2E
:1058700002F21F490B6823EA02030B60B4F1FF3FF9
:105880000DD03444194B1B685C60A6421DD9194BDE
:105890001868164B19680431FFF786FC70BD002D9F
:1058A000EFD0154A5168114B1868816018688C68F0
:1058B000C4601868043060601868043088601B6831
:1058C0005A61136801331360E8E70C4B1868074B03
:1058D00019680431FFF768FC094B1B68A342DDD946
:1058E000074B1C60DAE700BF083001200C2F0120B5
:1058F0008C2F0120142F0120E02F0120102F0120D8
:10590000BC2F01202DE9F04385B007468846144698
:105910001E469000FFF782FB10B381465820FFF728
:105920007DFB0546C0B158220021FBF7EBFAC5F814
:105930003090D5B10023039302950D9B01930C9BEE
:1059400000933346224641463846FFF766FE284616
:10595000FFF7E0FE012005E04846FFF7DBFBE8E744
:105960004FF0FF3005B0BDE8F0834FF0FF30F9E7AE
:1059700000B583B01A4B019300230093822219498A
:105980001948FFF7BFFF012809D001280AD0B0F15C
:10599000FF3F1CD0154B1B6803B05DF804FB00F003
:1059A000B1FCF2E74FF0500383F31188BFF36F8F20
:1059B000BFF34F8F0E4B4FF0FF321A600D4B012299
:1059C0001A600D4B00221A60FFF73EFAE2E74FF033
:1059D000500383F31188BFF36F8FBFF34F8FFEE740
:1059E000B82F01203468000829580008E001002081
:1059F000BC2F0120DC2F012008300120024A13684F
:105A000001331360704700BF842F0120014B1868D9
:105A1000704700BF08300120F8B5524B1B68002BBF
:105A200040F09980504B1C6801341C60C4B94F4B46
:105A30001B681B6843B14FF0500383F31188BFF319
:105A40006F8FBFF34F8FFEE7484A1168484B1868C5
:105A500010601960474A136801331360FFF7C0FDF7
:105A6000454B1B68A34211D90020444B1B68DB6ADD
:105A700003EB83039A00424B9B58012B00D9012072
:105A8000404B1B68002B6BD0012069E0002037E001
:105A9000394B4FF0FF321A60E7E7374B1A60E4E703
:105AA000D968516042E000219962116801391160A2
:105AB000DA6A01219140344E376839433160304908
:105AC00002EB82024FEA820C8C44DCF804209A60DC
:105AD0009668DE6075609560DA6A02EB820C4FEAC8
